{
  "_format": "hh-sol-artifact-1",
  "contractName": "Domains",
  "sourceName": "contracts/Domains.sol",
  "abi": [
    {
      "inputs": [
        {
          "internalType": "string",
          "name": "_tld",
          "type": "string"
        }
      ],
      "stateMutability": "payable",
      "type": "constructor"
    },
    {
      "inputs": [],
      "name": "AlreadyRegistered",
      "type": "error"
    },
    {
      "inputs": [
        {
          "internalType": "string",
          "name": "",
          "type": "string"
        }
      ],
      "name": "InvalidName",
      "type": "error"
    },
    {
      "inputs": [
        {
          "internalType": "string",
          "name": "",
          "type": "string"
        }
      ],
      "name": "Unauthorized",
      "type": "error"
    },
    {
      "anonymous": false,
      "inputs": [
        {
          "indexed": true,
          "internalType": "address",
          "name": "owner",
          "type": "address"
        },
        {
          "indexed": true,
          "internalType": "address",
          "name": "approved",
          "type": "address"
        },
        {
          "indexed": true,
          "internalType": "uint256",
          "name": "tokenId",
          "type": "uint256"
        }
      ],
      "name": "Approval",
      "type": "event"
    },
    {
      "anonymous": false,
      "inputs": [
        {
          "indexed": true,
          "internalType": "address",
          "name": "owner",
          "type": "address"
        },
        {
          "indexed": true,
          "internalType": "address",
          "name": "operator",
          "type": "address"
        },
        {
          "indexed": false,
          "internalType": "bool",
          "name": "approved",
          "type": "bool"
        }
      ],
      "name": "ApprovalForAll",
      "type": "event"
    },
    {
      "anonymous": false,
      "inputs": [
        {
          "indexed": true,
          "internalType": "address",
          "name": "from",
          "type": "address"
        },
        {
          "indexed": true,
          "internalType": "address",
          "name": "to",
          "type": "address"
        },
        {
          "indexed": true,
          "internalType": "uint256",
          "name": "tokenId",
          "type": "uint256"
        }
      ],
      "name": "Transfer",
      "type": "event"
    },
    {
      "inputs": [
        {
          "internalType": "address",
          "name": "to",
          "type": "address"
        },
        {
          "internalType": "uint256",
          "name": "tokenId",
          "type": "uint256"
        }
      ],
      "name": "approve",
      "outputs": [],
      "stateMutability": "nonpayable",
      "type": "function"
    },
    {
      "inputs": [
        {
          "internalType": "string",
          "name": "name",
          "type": "string"
        },
        {
          "internalType": "string",
          "name": "data",
          "type": "string"
        }
      ],
      "name": "attachDataToDomain",
      "outputs": [],
      "stateMutability": "nonpayable",
      "type": "function"
    },
    {
      "inputs": [
        {
          "internalType": "address",
          "name": "owner",
          "type": "address"
        }
      ],
      "name": "balanceOf",
      "outputs": [
        {
          "internalType": "uint256",
          "name": "",
          "type": "uint256"
        }
      ],
      "stateMutability": "view",
      "type": "function"
    },
    {
      "inputs": [
        {
          "internalType": "string",
          "name": "name",
          "type": "string"
        }
      ],
      "name": "domainPrice",
      "outputs": [
        {
          "internalType": "uint256",
          "name": "",
          "type": "uint256"
        }
      ],
      "stateMutability": "nonpayable",
      "type": "function"
    },
    {
      "inputs": [
        {
          "internalType": "string",
          "name": "",
          "type": "string"
        }
      ],
      "name": "domains",
      "outputs": [
        {
          "internalType": "address",
          "name": "",
          "type": "address"
        }
      ],
      "stateMutability": "view",
      "type": "function"
    },
    {
      "inputs": [],
      "name": "getAllNames",
      "outputs": [
        {
          "internalType": "string[]",
          "name": "",
          "type": "string[]"
        }
      ],
      "stateMutability": "view",
      "type": "function"
    },
    {
      "inputs": [
        {
          "internalType": "uint256",
          "name": "tokenId",
          "type": "uint256"
        }
      ],
      "name": "getApproved",
      "outputs": [
        {
          "internalType": "address",
          "name": "",
          "type": "address"
        }
      ],
      "stateMutability": "view",
      "type": "function"
    },
    {
      "inputs": [
        {
          "internalType": "string",
          "name": "name",
          "type": "string"
        }
      ],
      "name": "getData",
      "outputs": [
        {
          "internalType": "string",
          "name": "",
          "type": "string"
        }
      ],
      "stateMutability": "view",
      "type": "function"
    },
    {
      "inputs": [
        {
          "internalType": "string",
          "name": "name",
          "type": "string"
        }
      ],
      "name": "getDomain",
      "outputs": [
        {
          "internalType": "address",
          "name": "",
          "type": "address"
        }
      ],
      "stateMutability": "view",
      "type": "function"
    },
    {
      "inputs": [
        {
          "internalType": "address",
          "name": "owner",
          "type": "address"
        },
        {
          "internalType": "address",
          "name": "operator",
          "type": "address"
        }
      ],
      "name": "isApprovedForAll",
      "outputs": [
        {
          "internalType": "bool",
          "name": "",
          "type": "bool"
        }
      ],
      "stateMutability": "view",
      "type": "function"
    },
    {
      "inputs": [
        {
          "internalType": "string",
          "name": "name",
          "type": "string"
        }
      ],
      "name": "isValid",
      "outputs": [
        {
          "internalType": "bool",
          "name": "",
          "type": "bool"
        }
      ],
      "stateMutability": "pure",
      "type": "function"
    },
    {
      "inputs": [],
      "name": "name",
      "outputs": [
        {
          "internalType": "string",
          "name": "",
          "type": "string"
        }
      ],
      "stateMutability": "view",
      "type": "function"
    },
    {
      "inputs": [
        {
          "internalType": "uint256",
          "name": "",
          "type": "uint256"
        }
      ],
      "name": "names",
      "outputs": [
        {
          "internalType": "string",
          "name": "",
          "type": "string"
        }
      ],
      "stateMutability": "view",
      "type": "function"
    },
    {
      "inputs": [],
      "name": "owner",
      "outputs": [
        {
          "internalType": "address payable",
          "name": "",
          "type": "address"
        }
      ],
      "stateMutability": "view",
      "type": "function"
    },
    {
      "inputs": [
        {
          "internalType": "uint256",
          "name": "tokenId",
          "type": "uint256"
        }
      ],
      "name": "ownerOf",
      "outputs": [
        {
          "internalType": "address",
          "name": "",
          "type": "address"
        }
      ],
      "stateMutability": "view",
      "type": "function"
    },
    {
      "inputs": [],
      "name": "price",
      "outputs": [
        {
          "internalType": "uint256",
          "name": "",
          "type": "uint256"
        }
      ],
      "stateMutability": "view",
      "type": "function"
    },
    {
      "inputs": [
        {
          "internalType": "string",
          "name": "",
          "type": "string"
        }
      ],
      "name": "records",
      "outputs": [
        {
          "internalType": "string",
          "name": "",
          "type": "string"
        }
      ],
      "stateMutability": "view",
      "type": "function"
    },
    {
      "inputs": [
        {
          "internalType": "string",
          "name": "name",
          "type": "string"
        }
      ],
      "name": "register",
      "outputs": [],
      "stateMutability": "payable",
      "type": "function"
    },
    {
      "inputs": [
        {
          "internalType": "address",
          "name": "from",
          "type": "address"
        },
        {
          "internalType": "address",
          "name": "to",
          "type": "address"
        },
        {
          "internalType": "uint256",
          "name": "tokenId",
          "type": "uint256"
        }
      ],
      "name": "safeTransferFrom",
      "outputs": [],
      "stateMutability": "nonpayable",
      "type": "function"
    },
    {
      "inputs": [
        {
          "internalType": "address",
          "name": "from",
          "type": "address"
        },
        {
          "internalType": "address",
          "name": "to",
          "type": "address"
        },
        {
          "internalType": "uint256",
          "name": "tokenId",
          "type": "uint256"
        },
        {
          "internalType": "bytes",
          "name": "_data",
          "type": "bytes"
        }
      ],
      "name": "safeTransferFrom",
      "outputs": [],
      "stateMutability": "nonpayable",
      "type": "function"
    },
    {
      "inputs": [
        {
          "internalType": "address",
          "name": "operator",
          "type": "address"
        },
        {
          "internalType": "bool",
          "name": "approved",
          "type": "bool"
        }
      ],
      "name": "setApprovalForAll",
      "outputs": [],
      "stateMutability": "nonpayable",
      "type": "function"
    },
    {
      "inputs": [
        {
          "internalType": "bytes4",
          "name": "interfaceId",
          "type": "bytes4"
        }
      ],
      "name": "supportsInterface",
      "outputs": [
        {
          "internalType": "bool",
          "name": "",
          "type": "bool"
        }
      ],
      "stateMutability": "view",
      "type": "function"
    },
    {
      "inputs": [],
      "name": "symbol",
      "outputs": [
        {
          "internalType": "string",
          "name": "",
          "type": "string"
        }
      ],
      "stateMutability": "view",
      "type": "function"
    },
    {
      "inputs": [
        {
          "internalType": "uint256",
          "name": "tokenId",
          "type": "uint256"
        }
      ],
      "name": "tokenURI",
      "outputs": [
        {
          "internalType": "string",
          "name": "",
          "type": "string"
        }
      ],
      "stateMutability": "view",
      "type": "function"
    },
    {
      "inputs": [
        {
          "internalType": "address",
          "name": "from",
          "type": "address"
        },
        {
          "internalType": "address",
          "name": "to",
          "type": "address"
        },
        {
          "internalType": "uint256",
          "name": "tokenId",
          "type": "uint256"
        }
      ],
      "name": "transferFrom",
      "outputs": [],
      "stateMutability": "nonpayable",
      "type": "function"
    },
    {
      "inputs": [],
      "name": "withdraw",
      "outputs": [],
      "stateMutability": "nonpayable",
      "type": "function"
    }
  ],
  "bytecode": "0x6080604052604051806108a0016040528061086b8152602001620058bb61086b9139600b90805190602001906200003892919062000448565b506040518060400160405280600d81526020017f3c2f746578743e3c2f7376673e00000000000000000000000000000000000000815250600c90805190602001906200008692919062000448565b5060405162006126380380620061268339818101604052810190620000ac919062000695565b6040518060400160405280601281526020017f5368696e65204e616d65205365727669636500000000000000000000000000008152506040518060400160405280600381526020017f534e53000000000000000000000000000000000000000000000000000000000081525081600090805190602001906200013092919062000448565b5080600190805190602001906200014992919062000448565b50505033600860006101000a81548173ffffffffffffffffffffffffffffffffffffffff021916908373ffffffffffffffffffffffffffffffffffffffff160217905550620001d86040518060400160405280601d81526020017f57656c636f6d6520746f207368696e65206e616d652073657276696365000000815250620002d660201b62001ca81760201c565b8060099080519060200190620001f092919062000448565b50620002cf6040518060400160405280601b81526020017f546f702d6c6576656c20646f6d61696e206973207365742061733a0000000000815250600980546200023a9062000715565b80601f0160208091040260200160405190810160405280929190818152602001828054620002689062000715565b8015620002b95780601f106200028d57610100808354040283529160200191620002b9565b820191906000526020600020905b8154815290600101906020018083116200029b57829003601f168201915b50505050506200037960201b62001d411760201c565b5062000807565b6200037681604051602401620002ed9190620007a8565b6040516020818303038152906040527f41304fac000000000000000000000000000000000000000000000000000000007bffffffffffffffffffffffffffffffffffffffffffffffffffffffff19166020820180517bffffffffffffffffffffffffffffffffffffffffffffffffffffffff83818316178352505050506200041f60201b60201c565b50565b6200041b828260405160240162000392929190620007cc565b6040516020818303038152906040527f4b5c4277000000000000000000000000000000000000000000000000000000007bffffffffffffffffffffffffffffffffffffffffffffffffffffffff19166020820180517bffffffffffffffffffffffffffffffffffffffffffffffffffffffff83818316178352505050506200041f60201b60201c565b5050565b60008151905060006a636f6e736f6c652e6c6f679050602083016000808483855afa5050505050565b828054620004569062000715565b90600052602060002090601f0160209004810192826200047a5760008555620004c6565b82601f106200049557805160ff1916838001178555620004c6565b82800160010185558215620004c6579182015b82811115620004c5578251825591602001919060010190620004a8565b5b509050620004d59190620004d9565b5090565b5b80821115620004f4576000816000905550600101620004da565b5090565b6000604051905090565b600080fd5b600080fd5b600080fd5b600080fd5b6000601f19601f8301169050919050565b7f4e487b7100000000000000000000000000000000000000000000000000000000600052604160045260246000fd5b620005618262000516565b810181811067ffffffffffffffff8211171562000583576200058262000527565b5b80604052505050565b600062000598620004f8565b9050620005a6828262000556565b919050565b600067ffffffffffffffff821115620005c957620005c862000527565b5b620005d48262000516565b9050602081019050919050565b60005b8381101562000601578082015181840152602081019050620005e4565b8381111562000611576000848401525b50505050565b60006200062e6200062884620005ab565b6200058c565b9050828152602081018484840111156200064d576200064c62000511565b5b6200065a848285620005e1565b509392505050565b600082601f8301126200067a57620006796200050c565b5b81516200068c84826020860162000617565b91505092915050565b600060208284031215620006ae57620006ad62000502565b5b600082015167ffffffffffffffff811115620006cf57620006ce62000507565b5b620006dd8482850162000662565b91505092915050565b7f4e487b7100000000000000000000000000000000000000000000000000000000600052602260045260246000fd5b600060028204905060018216806200072e57607f821691505b60208210811415620007455762000744620006e6565b5b50919050565b600081519050919050565b600082825260208201905092915050565b600062000774826200074b565b62000780818562000756565b935062000792818560208601620005e1565b6200079d8162000516565b840191505092915050565b60006020820190508181036000830152620007c4818462000767565b905092915050565b60006040820190508181036000830152620007e8818562000767565b90508181036020830152620007fe818462000767565b90509392505050565b6150a480620008176000396000f3fe6080604052600436106101815760003560e01c806395d89b41116100d1578063c9330b851161008a578063f1dfaefb11610064578063f1dfaefb146105de578063f2c298be1461061b578063fb825e5f14610637578063ffeac8ec1461066257610181565b8063c9330b851461053b578063e985e9c514610564578063ecdd04da146105a157610181565b806395d89b4114610419578063a035b1fe14610444578063a22cb4651461046f578063ae55c88814610498578063b88d4fde146104d5578063c87b56dd146104fe57610181565b80633ccfd60b1161013e578063541e771d11610118578063541e771d146103375780636352211e1461037457806370a08231146103b15780638da5cb5b146103ee57610181565b80633ccfd60b146102ba57806342842e0e146102d15780634622ab03146102fa57610181565b806301ffc9a71461018657806306fdde03146101c3578063081812fc146101ee578063095ea7b31461022b57806323b872dd14610254578063264492351461027d575b600080fd5b34801561019257600080fd5b506101ad60048036038101906101a8919061323f565b61069f565b6040516101ba9190613287565b60405180910390f35b3480156101cf57600080fd5b506101d8610781565b6040516101e5919061333b565b60405180910390f35b3480156101fa57600080fd5b5061021560048036038101906102109190613393565b610813565b6040516102229190613401565b60405180910390f35b34801561023757600080fd5b50610252600480360381019061024d9190613448565b610898565b005b34801561026057600080fd5b5061027b60048036038101906102769190613488565b6109b0565b005b34801561028957600080fd5b506102a4600480360381019061029f9190613610565b610a10565b6040516102b19190613401565b60405180910390f35b3480156102c657600080fd5b506102cf610a59565b005b3480156102dd57600080fd5b506102f860048036038101906102f39190613488565b610b9e565b005b34801561030657600080fd5b50610321600480360381019061031c9190613393565b610bbe565b60405161032e919061333b565b60405180910390f35b34801561034357600080fd5b5061035e60048036038101906103599190613610565b610c5e565b60405161036b919061333b565b60405180910390f35b34801561038057600080fd5b5061039b60048036038101906103969190613393565b610d14565b6040516103a89190613401565b60405180910390f35b3480156103bd57600080fd5b506103d860048036038101906103d39190613659565b610dc6565b6040516103e59190613695565b60405180910390f35b3480156103fa57600080fd5b50610403610e7e565b60405161041091906136d1565b60405180910390f35b34801561042557600080fd5b5061042e610ea4565b60405161043b919061333b565b60405180910390f35b34801561045057600080fd5b50610459610f36565b6040516104669190613695565b60405180910390f35b34801561047b57600080fd5b5061049660048036038101906104919190613718565b610f3c565b005b3480156104a457600080fd5b506104bf60048036038101906104ba91906137b8565b610f52565b6040516104cc919061333b565b60405180910390f35b3480156104e157600080fd5b506104fc60048036038101906104f791906138a6565b611005565b005b34801561050a57600080fd5b5061052560048036038101906105209190613393565b611067565b604051610532919061333b565b60405180910390f35b34801561054757600080fd5b50610562600480360381019061055d9190613929565b6111b9565b005b34801561057057600080fd5b5061058b600480360381019061058691906139a5565b6112a1565b6040516105989190613287565b60405180910390f35b3480156105ad57600080fd5b506105c860048036038101906105c391906137b8565b611335565b6040516105d59190613401565b60405180910390f35b3480156105ea57600080fd5b50610605600480360381019061060091906137b8565b611380565b6040516106129190613287565b60405180910390f35b610635600480360381019061063091906137b8565b611433565b005b34801561064357600080fd5b5061064c611a0f565b6040516106599190613af1565b60405180910390f35b34801561066e57600080fd5b50610689600480360381019061068491906137b8565b611baf565b6040516106969190613695565b60405180910390f35b60007f80ac58cd000000000000000000000000000000000000000000000000000000007bffffffffffffffffffffffffffffffffffffffffffffffffffffffff1916827bffffffffffffffffffffffffffffffffffffffffffffffffffffffff1916148061076a57507f5b5e139f000000000000000000000000000000000000000000000000000000007bffffffffffffffffffffffffffffffffffffffffffffffffffffffff1916827bffffffffffffffffffffffffffffffffffffffffffffffffffffffff1916145b8061077a575061077982611ddd565b5b9050919050565b60606000805461079090613b42565b80601f01602080910402602001604051908101604052809291908181526020018280546107bc90613b42565b80156108095780601f106107de57610100808354040283529160200191610809565b820191906000526020600020905b8154815290600101906020018083116107ec57829003601f168201915b5050505050905090565b600061081e82611e47565b61085d576040517f08c379a000000000000000000000000000000000000000000000000000000000815260040161085490613be6565b60405180910390fd5b6004600083815260200190815260200160002060009054906101000a900473ffffffffffffffffffffffffffffffffffffffff169050919050565b60006108a382610d14565b90508073ffffffffffffffffffffffffffffffffffffffff168373ffffffffffffffffffffffffffffffffffffffff161415610914576040517f08c379a000000000000000000000000000000000000000000000000000000000815260040161090b90613c78565b60405180910390fd5b8073ffffffffffffffffffffffffffffffffffffffff16610933611eb3565b73ffffffffffffffffffffffffffffffffffffffff16148061096257506109618161095c611eb3565b6112a1565b5b6109a1576040517f08c379a000000000000000000000000000000000000000000000000000000000815260040161099890613d0a565b60405180910390fd5b6109ab8383611ebb565b505050565b6109c16109bb611eb3565b82611f74565b610a00576040517f08c379a00000000000000000000000000000000000000000000000000000000081526004016109f790613d9c565b60405180910390fd5b610a0b838383612052565b505050565b600e818051602081018201805184825260208301602085012081835280955050505050506000915054906101000a900473ffffffffffffffffffffffffffffffffffffffff1681565b600860009054906101000a900473ffffffffffffffffffffffffffffffffffffffff1673ffffffffffffffffffffffffffffffffffffffff163373ffffffffffffffffffffffffffffffffffffffff1614610ae9576040517f08c379a0000000000000000000000000000000000000000000000000000000008152600401610ae090613e2e565b60405180910390fd5b600047905060003373ffffffffffffffffffffffffffffffffffffffff1682604051610b1490613e7f565b60006040518083038185875af1925050503d8060008114610b51576040519150601f19603f3d011682016040523d82523d6000602084013e610b56565b606091505b5050905080610b9a576040517f08c379a0000000000000000000000000000000000000000000000000000000008152600401610b9190613ee0565b60405180910390fd5b5050565b610bb983838360405180602001604052806000815250611005565b505050565b60106020528060005260406000206000915090508054610bdd90613b42565b80601f0160208091040260200160405190810160405280929190818152602001828054610c0990613b42565b8015610c565780601f10610c2b57610100808354040283529160200191610c56565b820191906000526020600020905b815481529060010190602001808311610c3957829003601f168201915b505050505081565b600f818051602081018201805184825260208301602085012081835280955050505050506000915090508054610c9390613b42565b80601f0160208091040260200160405190810160405280929190818152602001828054610cbf90613b42565b8015610d0c5780601f10610ce157610100808354040283529160200191610d0c565b820191906000526020600020905b815481529060010190602001808311610cef57829003601f168201915b505050505081565b6000806002600084815260200190815260200160002060009054906101000a900473ffffffffffffffffffffffffffffffffffffffff169050600073ffffffffffffffffffffffffffffffffffffffff168173ffffffffffffffffffffffffffffffffffffffff161415610dbd576040517f08c379a0000000000000000000000000000000000000000000000000000000008152600401610db490613f72565b60405180910390fd5b80915050919050565b60008073ffffffffffffffffffffffffffffffffffffffff168273ffffffffffffffffffffffffffffffffffffffff161415610e37576040517f08c379a0000000000000000000000000000000000000000000000000000000008152600401610e2e90614004565b60405180910390fd5b600360008373ffffffffffffffffffffffffffffffffffffffff1673ffffffffffffffffffffffffffffffffffffffff168152602001908152602001600020549050919050565b600860009054906101000a900473ffffffffffffffffffffffffffffffffffffffff1681565b606060018054610eb390613b42565b80601f0160208091040260200160405190810160405280929190818152602001828054610edf90613b42565b8015610f2c5780601f10610f0157610100808354040283529160200191610f2c565b820191906000526020600020905b815481529060010190602001808311610f0f57829003601f168201915b5050505050905090565b600a5481565b610f4e610f47611eb3565b83836122b9565b5050565b6060600f8383604051610f66929190614054565b90815260200160405180910390208054610f7f90613b42565b80601f0160208091040260200160405190810160405280929190818152602001828054610fab90613b42565b8015610ff85780601f10610fcd57610100808354040283529160200191610ff8565b820191906000526020600020905b815481529060010190602001808311610fdb57829003601f168201915b5050505050905092915050565b611016611010611eb3565b83611f74565b611055576040517f08c379a000000000000000000000000000000000000000000000000000000000815260040161104c90613d9c565b60405180910390fd5b61106184848484612426565b50505050565b606061107282611e47565b6110b1576040517f08c379a00000000000000000000000000000000000000000000000000000000081526004016110a8906140df565b60405180910390fd5b60006006600084815260200190815260200160002080546110d190613b42565b80601f01602080910402602001604051908101604052809291908181526020018280546110fd90613b42565b801561114a5780601f1061111f5761010080835404028352916020019161114a565b820191906000526020600020905b81548152906001019060200180831161112d57829003601f168201915b50505050509050600061115b612482565b90506000815114156111715781925050506111b4565b6000825111156111a657808260405160200161118e929190614130565b604051602081830303815290604052925050506111b4565b6111af84612499565b925050505b919050565b3373ffffffffffffffffffffffffffffffffffffffff16600e84846040516111e2929190614054565b908152602001604051809103902060009054906101000a900473ffffffffffffffffffffffffffffffffffffffff1673ffffffffffffffffffffffffffffffffffffffff1614611267576040517f973d02cb00000000000000000000000000000000000000000000000000000000815260040161125e906141c6565b60405180910390fd5b80600f848460405161127a929190614054565b9081526020016040518091039020908051906020019061129b929190613130565b50505050565b6000600560008473ffffffffffffffffffffffffffffffffffffffff1673ffffffffffffffffffffffffffffffffffffffff16815260200190815260200160002060008373ffffffffffffffffffffffffffffffffffffffff1673ffffffffffffffffffffffffffffffffffffffff16815260200190815260200160002060009054906101000a900460ff16905092915050565b6000600e8383604051611349929190614054565b908152602001604051809103902060009054906101000a900473ffffffffffffffffffffffffffffffffffffffff16905092915050565b600060036113d184848080601f016020809104026020016040519081016040528093929190818152602001838380828437600081840152601f19601f82011690508083019250505050505050612540565b1015801561142b5750600a61142984848080601f016020809104026020016040519081016040528093929190818152602001838380828437600081840152601f19601f82011690508083019250505050505050612540565b105b905092915050565b600073ffffffffffffffffffffffffffffffffffffffff16600e838360405161145d929190614054565b908152602001604051809103902060009054906101000a900473ffffffffffffffffffffffffffffffffffffffff1673ffffffffffffffffffffffffffffffffffffffff16146114d9576040517f3a81d6fc00000000000000000000000000000000000000000000000000000000815260040160405180910390fd5b6114e38282611380565b6115265781816040517f7f19f48d00000000000000000000000000000000000000000000000000000000815260040161151d929190614213565b60405180910390fd5b60006115328383611baf565b90506115736040518060400160405280601081526020017f63616c63756c6174656420707269636500000000000000000000000000000000815250826126f5565b803410156115b6576040517f08c379a00000000000000000000000000000000000000000000000000000000081526004016115ad90614283565b60405180910390fd5b6115f46040518060400160405280600e81526020017f6d696e74696e6720646f6d61696e000000000000000000000000000000000000815250611ca8565b60008383600960405160200161160c93929190614383565b604051602081830303815290604052905061165b6040518060400160405280600481526020017f6e616d6500000000000000000000000000000000000000000000000000000000815250611ca8565b6000600b82600c604051602001611674939291906143b4565b60405160208183030381529060405290506116c36040518060400160405280600381526020017f7376670000000000000000000000000000000000000000000000000000000000815250611ca8565b60006116cf6007612791565b905061170f6040518060400160405280600381526020017f7269640000000000000000000000000000000000000000000000000000000000815250611ca8565b600061175e87878080601f016020809104026020016040519081016040528093929190818152602001838380828437600081840152601f19601f82011690508083019250505050505050612540565b9050600061176b8261279f565b905061185f604051806060016040528060318152602001614ffe6031913989898080601f016020809104026020016040519081016040528093929190818152602001838380828437600081840152601f19601f82011690508083019250505050505050600980546117db90613b42565b80601f016020809104026020016040519081016040528092919081815260200182805461180790613b42565b80156118545780601f1061182957610100808354040283529160200191611854565b820191906000526020600020905b81548152906001019060200180831161183757829003601f168201915b505050505086612900565b60006118958661186e876129a2565b8460405160200161188193929190614561565b6040516020818303038152906040526129a2565b90506000816040516020016118aa919061460a565b60405160208183030381529060405290506118c53386612b3a565b6118cf8582612b58565b6118f0604051806060016040528060398152602001614fc560399139611ca8565b611912604051806060016040528060218152602001614fa46021913982611d41565b33600e8b8b604051611925929190614054565b908152602001604051809103902060006101000a81548173ffffffffffffffffffffffffffffffffffffffff021916908373ffffffffffffffffffffffffffffffffffffffff160217905550611992604051806060016040528060398152602001614fc560399139611ca8565b866010600087815260200190815260200160002090805190602001906119b9929190613130565b506119c46007612bcc565b611a03336040518060400160405280602081526020017f20596f757220646f6d61696e20686173206265656e2072656769737465726564815250612be2565b50505050505050505050565b60606000611a1d6007612791565b67ffffffffffffffff811115611a3657611a356134e5565b5b604051908082528060200260200182016040528015611a6957816020015b6060815260200190600190039081611a545790505b50905060005b611a796007612791565b811015611ba757601060008281526020019081526020016000208054611a9e90613b42565b80601f0160208091040260200160405190810160405280929190818152602001828054611aca90613b42565b8015611b175780601f10611aec57610100808354040283529160200191611b17565b820191906000526020600020905b815481529060010190602001808311611afa57829003601f168201915b5050505050828281518110611b2f57611b2e61462c565b5b6020026020010181905250611b946040518060400160405280601e81526020017f25732069732074686520646f6d61696e206e616d652061742069642025640000815250838381518110611b8657611b8561462c565b5b602002602001015183612c7e565b8080611b9f9061468a565b915050611a6f565b508091505090565b600080611bff84848080601f016020809104026020016040519081016040528093929190818152602001838380828437600081840152601f19601f82011690508083019250505050505050612540565b90506000811415611c45576040517f08c379a0000000000000000000000000000000000000000000000000000000008152600401611c3c90614745565b60405180910390fd5b60038111611c61576706f05b59d3b20000600a81905550611c9c565b600381118015611c72575060048111155b15611c8b57670429d069189e0000600a81905550611c9b565b67016345785d8a0000600a819055505b5b600a5491505092915050565b611d3e81604051602401611cbc919061333b565b6040516020818303038152906040527f41304fac000000000000000000000000000000000000000000000000000000007bffffffffffffffffffffffffffffffffffffffffffffffffffffffff19166020820180517bffffffffffffffffffffffffffffffffffffffffffffffffffffffff8381831617835250505050612d1d565b50565b611dd98282604051602401611d57929190614765565b6040516020818303038152906040527f4b5c4277000000000000000000000000000000000000000000000000000000007bffffffffffffffffffffffffffffffffffffffffffffffffffffffff19166020820180517bffffffffffffffffffffffffffffffffffffffffffffffffffffffff8381831617835250505050612d1d565b5050565b60007f01ffc9a7000000000000000000000000000000000000000000000000000000007bffffffffffffffffffffffffffffffffffffffffffffffffffffffff1916827bffffffffffffffffffffffffffffffffffffffffffffffffffffffff1916149050919050565b60008073ffffffffffffffffffffffffffffffffffffffff166002600084815260200190815260200160002060009054906101000a900473ffffffffffffffffffffffffffffffffffffffff1673ffffffffffffffffffffffffffffffffffffffff1614159050919050565b600033905090565b816004600083815260200190815260200160002060006101000a81548173ffffffffffffffffffffffffffffffffffffffff021916908373ffffffffffffffffffffffffffffffffffffffff160217905550808273ffffffffffffffffffffffffffffffffffffffff16611f2e83610d14565b73ffffffffffffffffffffffffffffffffffffffff167f8c5be1e5ebec7d5bd14f71427d1e84f3dd0314c0f7b2291e5b200ac8c7c3b92560405160405180910390a45050565b6000611f7f82611e47565b611fbe576040517f08c379a0000000000000000000000000000000000000000000000000000000008152600401611fb59061480e565b60405180910390fd5b6000611fc983610d14565b90508073ffffffffffffffffffffffffffffffffffffffff168473ffffffffffffffffffffffffffffffffffffffff16148061200b575061200a81856112a1565b5b8061204957508373ffffffffffffffffffffffffffffffffffffffff1661203184610813565b73ffffffffffffffffffffffffffffffffffffffff16145b91505092915050565b8273ffffffffffffffffffffffffffffffffffffffff1661207282610d14565b73ffffffffffffffffffffffffffffffffffffffff16146120c8576040517f08c379a00000000000000000000000000000000000000000000000000000000081526004016120bf906148a0565b60405180910390fd5b600073ffffffffffffffffffffffffffffffffffffffff168273ffffffffffffffffffffffffffffffffffffffff161415612138576040517f08c379a000000000000000000000000000000000000000000000000000000000815260040161212f90614932565b60405180910390fd5b612143838383612d46565b61214e600082611ebb565b6001600360008573ffffffffffffffffffffffffffffffffffffffff1673ffffffffffffffffffffffffffffffffffffffff168152602001908152602001600020600082825461219e9190614952565b925050819055506001600360008473ffffffffffffffffffffffffffffffffffffffff1673ffffffffffffffffffffffffffffffffffffffff16815260200190815260200160002060008282546121f59190614986565b92505081905550816002600083815260200190815260200160002060006101000a81548173ffffffffffffffffffffffffffffffffffffffff021916908373ffffffffffffffffffffffffffffffffffffffff160217905550808273ffffffffffffffffffffffffffffffffffffffff168473ffffffffffffffffffffffffffffffffffffffff167fddf252ad1be2c89b69c2b068fc378daa952ba7f163c4a11628f55a4df523b3ef60405160405180910390a46122b4838383612d4b565b505050565b8173ffffffffffffffffffffffffffffffffffffffff168373ffffffffffffffffffffffffffffffffffffffff161415612328576040517f08c379a000000000000000000000000000000000000000000000000000000000815260040161231f90614a28565b60405180910390fd5b80600560008573ffffffffffffffffffffffffffffffffffffffff1673ffffffffffffffffffffffffffffffffffffffff16815260200190815260200160002060008473ffffffffffffffffffffffffffffffffffffffff1673ffffffffffffffffffffffffffffffffffffffff16815260200190815260200160002060006101000a81548160ff0219169083151502179055508173ffffffffffffffffffffffffffffffffffffffff168373ffffffffffffffffffffffffffffffffffffffff167f17307eab39ab6107e8899845ad3d59bd9653f200f220920489ca2b5937696c31836040516124199190613287565b60405180910390a3505050565b612431848484612052565b61243d84848484612d50565b61247c576040517f08c379a000000000000000000000000000000000000000000000000000000000815260040161247390614aba565b60405180910390fd5b50505050565b606060405180602001604052806000815250905090565b60606124a482611e47565b6124e3576040517f08c379a00000000000000000000000000000000000000000000000000000000081526004016124da90614b4c565b60405180910390fd5b60006124ed612482565b9050600081511161250d5760405180602001604052806000815250612538565b806125178461279f565b604051602001612528929190614130565b6040516020818303038152906040525b915050919050565b60008060008084519050600092505b808210156126ea57600085838151811061256c5761256b61462c565b5b602001015160f81c60f81b9050608060f81b817effffffffffffffffffffffffffffffffffffffffffffffffffffffffffffff191610156125bb576001836125b49190614986565b92506126d6565b60e060f81b817effffffffffffffffffffffffffffffffffffffffffffffffffffffffffffff191610156125fd576002836125f69190614986565b92506126d5565b60f060f81b817effffffffffffffffffffffffffffffffffffffffffffffffffffffffffffff1916101561263f576003836126389190614986565b92506126d4565b60f8801b817effffffffffffffffffffffffffffffffffffffffffffffffffffffffffffff19161015612680576004836126799190614986565b92506126d3565b60fc60f81b817effffffffffffffffffffffffffffffffffffffffffffffffffffffffffffff191610156126c2576005836126bb9190614986565b92506126d2565b6006836126cf9190614986565b92505b5b5b5b5b5082806126e29061468a565b93505061254f565b829350505050919050565b61278d828260405160240161270b929190614b6c565b6040516020818303038152906040527f9710a9d0000000000000000000000000000000000000000000000000000000007bffffffffffffffffffffffffffffffffffffffffffffffffffffffff19166020820180517bffffffffffffffffffffffffffffffffffffffffffffffffffffffff8381831617835250505050612d1d565b5050565b600081600001549050919050565b606060008214156127e7576040518060400160405280600181526020017f300000000000000000000000000000000000000000000000000000000000000081525090506128fb565b600082905060005b600082146128195780806128029061468a565b915050600a826128129190614bcb565b91506127ef565b60008167ffffffffffffffff811115612835576128346134e5565b5b6040519080825280601f01601f1916602001820160405280156128675781602001600182028036833780820191505090505b5090505b600085146128f4576001826128809190614952565b9150600a8561288f9190614bfc565b603061289b9190614986565b60f81b8183815181106128b1576128b061462c565b5b60200101907effffffffffffffffffffffffffffffffffffffffffffffffffffffffffffff1916908160001a905350600a856128ed9190614bcb565b945061286b565b8093505050505b919050565b61299c8484848460405160240161291a9493929190614c2d565b6040516020818303038152906040527f9fd009f5000000000000000000000000000000000000000000000000000000007bffffffffffffffffffffffffffffffffffffffffffffffffffffffff19166020820180517bffffffffffffffffffffffffffffffffffffffffffffffffffffffff8381831617835250505050612d1d565b50505050565b606060008251905060008114156129cb5760405180602001604052806000815250915050612b35565b600060036002836129dc9190614986565b6129e69190614bcb565b60046129f29190614c87565b90506000602082612a039190614986565b67ffffffffffffffff811115612a1c57612a1b6134e5565b5b6040519080825280601f01601f191660200182016040528015612a4e5781602001600182028036833780820191505090505b509050600060405180606001604052806040815260200161502f604091399050600181016020830160005b86811015612af25760038101905062ffffff818a015116603f8160121c168401518060081b905060ff603f83600c1c1686015116810190508060081b905060ff603f8360061c1686015116810190508060081b905060ff603f831686015116810190508060e01b90508084526004840193505050612a79565b506003860660018114612b0c5760028114612b1c57612b27565b613d3d60f01b6002830352612b27565b603d60f81b60018303525b508484525050819450505050505b919050565b612b54828260405180602001604052806000815250612ed8565b5050565b612b6182611e47565b612ba0576040517f08c379a0000000000000000000000000000000000000000000000000000000008152600401612b9790614d53565b60405180910390fd5b80600660008481526020019081526020016000209080519060200190612bc7929190613130565b505050565b6001816000016000828254019250508190555050565b612c7a8282604051602401612bf8929190614d73565b6040516020818303038152906040527f759f86bb000000000000000000000000000000000000000000000000000000007bffffffffffffffffffffffffffffffffffffffffffffffffffffffff19166020820180517bffffffffffffffffffffffffffffffffffffffffffffffffffffffff8381831617835250505050612d1d565b5050565b612d18838383604051602401612c9693929190614da3565b6040516020818303038152906040527ff362ca59000000000000000000000000000000000000000000000000000000007bffffffffffffffffffffffffffffffffffffffffffffffffffffffff19166020820180517bffffffffffffffffffffffffffffffffffffffffffffffffffffffff8381831617835250505050612d1d565b505050565b60008151905060006a636f6e736f6c652e6c6f679050602083016000808483855afa5050505050565b505050565b505050565b6000612d718473ffffffffffffffffffffffffffffffffffffffff16612f33565b15612ecb578373ffffffffffffffffffffffffffffffffffffffff1663150b7a02612d9a611eb3565b8786866040518563ffffffff1660e01b8152600401612dbc9493929190614e3d565b6020604051808303816000875af1925050508015612df857506040513d601f19601f82011682018060405250810190612df59190614e9e565b60015b612e7b573d8060008114612e28576040519150601f19603f3d011682016040523d82523d6000602084013e612e2d565b606091505b50600081511415612e73576040517f08c379a0000000000000000000000000000000000000000000000000000000008152600401612e6a90614aba565b60405180910390fd5b805181602001fd5b63150b7a0260e01b7bffffffffffffffffffffffffffffffffffffffffffffffffffffffff1916817bffffffffffffffffffffffffffffffffffffffffffffffffffffffff191614915050612ed0565b600190505b949350505050565b612ee28383612f56565b612eef6000848484612d50565b612f2e576040517f08c379a0000000000000000000000000000000000000000000000000000000008152600401612f2590614aba565b60405180910390fd5b505050565b6000808273ffffffffffffffffffffffffffffffffffffffff163b119050919050565b600073ffffffffffffffffffffffffffffffffffffffff168273ffffffffffffffffffffffffffffffffffffffff161415612fc6576040517f08c379a0000000000000000000000000000000000000000000000000000000008152600401612fbd90614f17565b60405180910390fd5b612fcf81611e47565b1561300f576040517f08c379a000000000000000000000000000000000000000000000000000000000815260040161300690614f83565b60405180910390fd5b61301b60008383612d46565b6001600360008473ffffffffffffffffffffffffffffffffffffffff1673ffffffffffffffffffffffffffffffffffffffff168152602001908152602001600020600082825461306b9190614986565b92505081905550816002600083815260200190815260200160002060006101000a81548173ffffffffffffffffffffffffffffffffffffffff021916908373ffffffffffffffffffffffffffffffffffffffff160217905550808273ffffffffffffffffffffffffffffffffffffffff16600073ffffffffffffffffffffffffffffffffffffffff167fddf252ad1be2c89b69c2b068fc378daa952ba7f163c4a11628f55a4df523b3ef60405160405180910390a461312c60008383612d4b565b5050565b82805461313c90613b42565b90600052602060002090601f01602090048101928261315e57600085556131a5565b82601f1061317757805160ff19168380011785556131a5565b828001600101855582156131a5579182015b828111156131a4578251825591602001919060010190613189565b5b5090506131b291906131b6565b5090565b5b808211156131cf5760008160009055506001016131b7565b5090565b6000604051905090565b600080fd5b600080fd5b60007fffffffff0000000000000000000000000000000000000000000000000000000082169050919050565b61321c816131e7565b811461322757600080fd5b50565b60008135905061323981613213565b92915050565b600060208284031215613255576132546131dd565b5b60006132638482850161322a565b91505092915050565b60008115159050919050565b6132818161326c565b82525050565b600060208201905061329c6000830184613278565b92915050565b600081519050919050565b600082825260208201905092915050565b60005b838110156132dc5780820151818401526020810190506132c1565b838111156132eb576000848401525b50505050565b6000601f19601f8301169050919050565b600061330d826132a2565b61331781856132ad565b93506133278185602086016132be565b613330816132f1565b840191505092915050565b600060208201905081810360008301526133558184613302565b905092915050565b6000819050919050565b6133708161335d565b811461337b57600080fd5b50565b60008135905061338d81613367565b92915050565b6000602082840312156133a9576133a86131dd565b5b60006133b78482850161337e565b91505092915050565b600073ffffffffffffffffffffffffffffffffffffffff82169050919050565b60006133eb826133c0565b9050919050565b6133fb816133e0565b82525050565b600060208201905061341660008301846133f2565b92915050565b613425816133e0565b811461343057600080fd5b50565b6000813590506134428161341c565b92915050565b6000806040838503121561345f5761345e6131dd565b5b600061346d85828601613433565b925050602061347e8582860161337e565b9150509250929050565b6000806000606084860312156134a1576134a06131dd565b5b60006134af86828701613433565b93505060206134c086828701613433565b92505060406134d18682870161337e565b9150509250925092565b600080fd5b600080fd5b7f4e487b7100000000000000000000000000000000000000000000000000000000600052604160045260246000fd5b61351d826132f1565b810181811067ffffffffffffffff8211171561353c5761353b6134e5565b5b80604052505050565b600061354f6131d3565b905061355b8282613514565b919050565b600067ffffffffffffffff82111561357b5761357a6134e5565b5b613584826132f1565b9050602081019050919050565b82818337600083830152505050565b60006135b36135ae84613560565b613545565b9050828152602081018484840111156135cf576135ce6134e0565b5b6135da848285613591565b509392505050565b600082601f8301126135f7576135f66134db565b5b81356136078482602086016135a0565b91505092915050565b600060208284031215613626576136256131dd565b5b600082013567ffffffffffffffff811115613644576136436131e2565b5b613650848285016135e2565b91505092915050565b60006020828403121561366f5761366e6131dd565b5b600061367d84828501613433565b91505092915050565b61368f8161335d565b82525050565b60006020820190506136aa6000830184613686565b92915050565b60006136bb826133c0565b9050919050565b6136cb816136b0565b82525050565b60006020820190506136e660008301846136c2565b92915050565b6136f58161326c565b811461370057600080fd5b50565b600081359050613712816136ec565b92915050565b6000806040838503121561372f5761372e6131dd565b5b600061373d85828601613433565b925050602061374e85828601613703565b9150509250929050565b600080fd5b600080fd5b60008083601f840112613778576137776134db565b5b8235905067ffffffffffffffff81111561379557613794613758565b5b6020830191508360018202830111156137b1576137b061375d565b5b9250929050565b600080602083850312156137cf576137ce6131dd565b5b600083013567ffffffffffffffff8111156137ed576137ec6131e2565b5b6137f985828601613762565b92509250509250929050565b600067ffffffffffffffff8211156138205761381f6134e5565b5b613829826132f1565b9050602081019050919050565b600061384961384484613805565b613545565b905082815260208101848484011115613865576138646134e0565b5b613870848285613591565b509392505050565b600082601f83011261388d5761388c6134db565b5b813561389d848260208601613836565b91505092915050565b600080600080608085870312156138c0576138bf6131dd565b5b60006138ce87828801613433565b94505060206138df87828801613433565b93505060406138f08782880161337e565b925050606085013567ffffffffffffffff811115613911576139106131e2565b5b61391d87828801613878565b91505092959194509250565b600080600060408486031215613942576139416131dd565b5b600084013567ffffffffffffffff8111156139605761395f6131e2565b5b61396c86828701613762565b9350935050602084013567ffffffffffffffff81111561398f5761398e6131e2565b5b61399b868287016135e2565b9150509250925092565b600080604083850312156139bc576139bb6131dd565b5b60006139ca85828601613433565b92505060206139db85828601613433565b9150509250929050565b600081519050919050565b600082825260208201905092915050565b6000819050602082019050919050565b600082825260208201905092915050565b6000613a2d826132a2565b613a378185613a11565b9350613a478185602086016132be565b613a50816132f1565b840191505092915050565b6000613a678383613a22565b905092915050565b6000602082019050919050565b6000613a87826139e5565b613a9181856139f0565b935083602082028501613aa385613a01565b8060005b85811015613adf5784840389528151613ac08582613a5b565b9450613acb83613a6f565b925060208a01995050600181019050613aa7565b50829750879550505050505092915050565b60006020820190508181036000830152613b0b8184613a7c565b905092915050565b7f4e487b7100000000000000000000000000000000000000000000000000000000600052602260045260246000fd5b60006002820490506001821680613b5a57607f821691505b60208210811415613b6e57613b6d613b13565b5b50919050565b7f4552433732313a20617070726f76656420717565727920666f72206e6f6e657860008201527f697374656e7420746f6b656e0000000000000000000000000000000000000000602082015250565b6000613bd0602c836132ad565b9150613bdb82613b74565b604082019050919050565b60006020820190508181036000830152613bff81613bc3565b9050919050565b7f4552433732313a20617070726f76616c20746f2063757272656e74206f776e6560008201527f7200000000000000000000000000000000000000000000000000000000000000602082015250565b6000613c626021836132ad565b9150613c6d82613c06565b604082019050919050565b60006020820190508181036000830152613c9181613c55565b9050919050565b7f4552433732313a20617070726f76652063616c6c6572206973206e6f74206f7760008201527f6e6572206e6f7220617070726f76656420666f7220616c6c0000000000000000602082015250565b6000613cf46038836132ad565b9150613cff82613c98565b604082019050919050565b60006020820190508181036000830152613d2381613ce7565b9050919050565b7f4552433732313a207472616e736665722063616c6c6572206973206e6f74206f60008201527f776e6572206e6f7220617070726f766564000000000000000000000000000000602082015250565b6000613d866031836132ad565b9150613d9182613d2a565b604082019050919050565b60006020820190508181036000830152613db581613d79565b9050919050565b7f446f6d61696e733a204f6e6c79206f776e65722063616e20616363657373207460008201527f6869730000000000000000000000000000000000000000000000000000000000602082015250565b6000613e186023836132ad565b9150613e2382613dbc565b604082019050919050565b60006020820190508181036000830152613e4781613e0b565b9050919050565b600081905092915050565b50565b6000613e69600083613e4e565b9150613e7482613e59565b600082019050919050565b6000613e8a82613e5c565b9150819050919050565b7f4661696c656420746f207769746864726177204d617469630000000000000000600082015250565b6000613eca6018836132ad565b9150613ed582613e94565b602082019050919050565b60006020820190508181036000830152613ef981613ebd565b9050919050565b7f4552433732313a206f776e657220717565727920666f72206e6f6e657869737460008201527f656e7420746f6b656e0000000000000000000000000000000000000000000000602082015250565b6000613f5c6029836132ad565b9150613f6782613f00565b604082019050919050565b60006020820190508181036000830152613f8b81613f4f565b9050919050565b7f4552433732313a2062616c616e636520717565727920666f7220746865207a6560008201527f726f206164647265737300000000000000000000000000000000000000000000602082015250565b6000613fee602a836132ad565b9150613ff982613f92565b604082019050919050565b6000602082019050818103600083015261401d81613fe1565b9050919050565b600081905092915050565b600061403b8385614024565b9350614048838584613591565b82840190509392505050565b600061406182848661402f565b91508190509392505050565b7f45524337323155524953746f726167653a2055524920717565727920666f722060008201527f6e6f6e6578697374656e7420746f6b656e000000000000000000000000000000602082015250565b60006140c96031836132ad565b91506140d48261406d565b604082019050919050565b600060208201905081810360008301526140f8816140bc565b9050919050565b600061410a826132a2565b6141148185614024565b93506141248185602086016132be565b80840191505092915050565b600061413c82856140ff565b915061414882846140ff565b91508190509392505050565b7f4f6e6c79206f776e6572206f6620646f6d61696e2063616e206164642064617460008201527f6121210000000000000000000000000000000000000000000000000000000000602082015250565b60006141b06023836132ad565b91506141bb82614154565b604082019050919050565b600060208201905081810360008301526141df816141a3565b9050919050565b60006141f283856132ad565b93506141ff838584613591565b614208836132f1565b840190509392505050565b6000602082019050818103600083015261422e8184866141e6565b90509392505050565b7f446f6d61696e733a20496e73756666696369656e74204d617469632070616964600082015250565b600061426d6020836132ad565b915061427882614237565b602082019050919050565b6000602082019050818103600083015261429c81614260565b9050919050565b7f2e00000000000000000000000000000000000000000000000000000000000000600082015250565b60006142d9600183614024565b91506142e4826142a3565b600182019050919050565b60008190508160005260206000209050919050565b6000815461431181613b42565b61431b8186614024565b9450600182166000811461433657600181146143475761437a565b60ff1983168652818601935061437a565b614350856142ef565b60005b8381101561437257815481890152600182019150602081019050614353565b838801955050505b50505092915050565b600061439082858761402f565b915061439b826142cc565b91506143a78284614304565b9150819050949350505050565b60006143c08286614304565b91506143cc82856140ff565b91506143d88284614304565b9150819050949350505050565b7f7b226e616d65223a202200000000000000000000000000000000000000000000600082015250565b600061441b600a83614024565b9150614426826143e5565b600a82019050919050565b7f222c20226465736372697074696f6e223a20224120646f6d61696e206f6e207460008201527f6865205368696e65206e616d652073657276696365222c2022696d616765223a60208201527f2022646174613a696d6167652f7376672b786d6c3b6261736536342c00000000604082015250565b60006144b3605c83614024565b91506144be82614431565b605c82019050919050565b7f222c226c656e677468223a220000000000000000000000000000000000000000600082015250565b60006144ff600c83614024565b915061450a826144c9565b600c82019050919050565b7f227d000000000000000000000000000000000000000000000000000000000000600082015250565b600061454b600283614024565b915061455682614515565b600282019050919050565b600061456c8261440e565b915061457882866140ff565b9150614583826144a6565b915061458f82856140ff565b915061459a826144f2565b91506145a682846140ff565b91506145b18261453e565b9150819050949350505050565b7f646174613a6170706c69636174696f6e2f6a736f6e3b6261736536342c000000600082015250565b60006145f4601d83614024565b91506145ff826145be565b601d82019050919050565b6000614615826145e7565b915061462182846140ff565b915081905092915050565b7f4e487b7100000000000000000000000000000000000000000000000000000000600052603260045260246000fd5b7f4e487b7100000000000000000000000000000000000000000000000000000000600052601160045260246000fd5b60006146958261335d565b91507fffffffffffffffffffffffffffffffffffffffffffffffffffffffffffffffff8214156146c8576146c761465b565b5b600182019050919050565b7f446f6d61696e733a20456e74657220612076616c696420646f6d61696e206e6160008201527f6d65000000000000000000000000000000000000000000000000000000000000602082015250565b600061472f6022836132ad565b915061473a826146d3565b604082019050919050565b6000602082019050818103600083015261475e81614722565b9050919050565b6000604082019050818103600083015261477f8185613302565b905081810360208301526147938184613302565b90509392505050565b7f4552433732313a206f70657261746f7220717565727920666f72206e6f6e657860008201527f697374656e7420746f6b656e0000000000000000000000000000000000000000602082015250565b60006147f8602c836132ad565b91506148038261479c565b604082019050919050565b60006020820190508181036000830152614827816147eb565b9050919050565b7f4552433732313a207472616e736665722066726f6d20696e636f72726563742060008201527f6f776e6572000000000000000000000000000000000000000000000000000000602082015250565b600061488a6025836132ad565b91506148958261482e565b604082019050919050565b600060208201905081810360008301526148b98161487d565b9050919050565b7f4552433732313a207472616e7366657220746f20746865207a65726f2061646460008201527f7265737300000000000000000000000000000000000000000000000000000000602082015250565b600061491c6024836132ad565b9150614927826148c0565b604082019050919050565b6000602082019050818103600083015261494b8161490f565b9050919050565b600061495d8261335d565b91506149688361335d565b92508282101561497b5761497a61465b565b5b828203905092915050565b60006149918261335d565b915061499c8361335d565b9250827fffffffffffffffffffffffffffffffffffffffffffffffffffffffffffffffff038211156149d1576149d061465b565b5b828201905092915050565b7f4552433732313a20617070726f766520746f2063616c6c657200000000000000600082015250565b6000614a126019836132ad565b9150614a1d826149dc565b602082019050919050565b60006020820190508181036000830152614a4181614a05565b9050919050565b7f4552433732313a207472616e7366657220746f206e6f6e20455243373231526560008201527f63656976657220696d706c656d656e7465720000000000000000000000000000602082015250565b6000614aa46032836132ad565b9150614aaf82614a48565b604082019050919050565b60006020820190508181036000830152614ad381614a97565b9050919050565b7f4552433732314d657461646174613a2055524920717565727920666f72206e6f60008201527f6e6578697374656e7420746f6b656e0000000000000000000000000000000000602082015250565b6000614b36602f836132ad565b9150614b4182614ada565b604082019050919050565b60006020820190508181036000830152614b6581614b29565b9050919050565b60006040820190508181036000830152614b868185613302565b9050614b956020830184613686565b9392505050565b7f4e487b7100000000000000000000000000000000000000000000000000000000600052601260045260246000fd5b6000614bd68261335d565b9150614be18361335d565b925082614bf157614bf0614b9c565b5b828204905092915050565b6000614c078261335d565b9150614c128361335d565b925082614c2257614c21614b9c565b5b828206905092915050565b60006080820190508181036000830152614c478187613302565b90508181036020830152614c5b8186613302565b90508181036040830152614c6f8185613302565b9050614c7e6060830184613686565b95945050505050565b6000614c928261335d565b9150614c9d8361335d565b9250817fffffffffffffffffffffffffffffffffffffffffffffffffffffffffffffffff0483118215151615614cd657614cd561465b565b5b828202905092915050565b7f45524337323155524953746f726167653a2055524920736574206f66206e6f6e60008201527f6578697374656e7420746f6b656e000000000000000000000000000000000000602082015250565b6000614d3d602e836132ad565b9150614d4882614ce1565b604082019050919050565b60006020820190508181036000830152614d6c81614d30565b9050919050565b6000604082019050614d8860008301856133f2565b8181036020830152614d9a8184613302565b90509392505050565b60006060820190508181036000830152614dbd8186613302565b90508181036020830152614dd18185613302565b9050614de06040830184613686565b949350505050565b600081519050919050565b600082825260208201905092915050565b6000614e0f82614de8565b614e198185614df3565b9350614e298185602086016132be565b614e32816132f1565b840191505092915050565b6000608082019050614e5260008301876133f2565b614e5f60208301866133f2565b614e6c6040830185613686565b8181036060830152614e7e8184614e04565b905095945050505050565b600081519050614e9881613213565b92915050565b600060208284031215614eb457614eb36131dd565b5b6000614ec284828501614e89565b91505092915050565b7f4552433732313a206d696e7420746f20746865207a65726f2061646472657373600082015250565b6000614f016020836132ad565b9150614f0c82614ecb565b602082019050919050565b60006020820190508181036000830152614f3081614ef4565b9050919050565b7f4552433732313a20746f6b656e20616c7265616479206d696e74656400000000600082015250565b6000614f6d601c836132ad565b9150614f7882614f37565b602082019050919050565b60006020820190508181036000830152614f9c81614f60565b905091905056fe46696e616c20746f6b656e2075726920666f722074686973206e66742069733a200a2d2d2d2d2d2d2d2d2d2d2d2d2d2d2d2d2d2d2d2d2d2d2d2d2d2d2d2d2d2d2d2d2d2d2d2d2d2d2d2d2d2d2d2d2d2d2d2d2d2d2d2d2d2d2d2d5265676973746572696e672025732e2573206f6e2074686520636f6e7472616374207769746820746f6b656e49442025644142434445464748494a4b4c4d4e4f505152535455565758595a6162636465666768696a6b6c6d6e6f707172737475767778797a303132333435363738392b2fa2646970667358221220f839b65f694c188900519c3abd97bfffc4427c716ffb721d22e719a0e49a00e864736f6c634300080a00333c73766720786d6c6e733d22687474703a2f2f7777772e77332e6f72672f323030302f737667222077696474683d2232373022206865696768743d22323730222066696c6c3d226e6f6e65223e3c706174682066696c6c3d2275726c282342292220643d224d302030683237307632373048307a222f3e3c646566733e3c66696c7465722069643d22412220636f6c6f722d696e746572706f6c6174696f6e2d66696c746572733d2273524742222066696c746572556e6974733d227573657253706163654f6e55736522206865696768743d22323730222077696474683d22323730223e3c666544726f70536861646f772064783d2230222064793d22312220737464446576696174696f6e3d22322220666c6f6f642d6f7061636974793d222e323235222077696474683d223230302522206865696768743d2232303025222f3e3c2f66696c7465723e3c2f646566733e3c7061746820643d224d37322e3836332034322e393439632d2e3636382d2e3338372d312e3432362d2e35392d322e3139372d2e3539732d312e3532392e3230342d322e3139372e35396c2d31302e30383120362e3033322d362e383520332e3933342d31302e30383120362e303332632d2e3636382e3338372d312e3432362e35392d322e3139372e3539732d312e3532392d2e3230342d322e3139372d2e35396c2d382e3031332d342e37323161342e353220342e35322030203020312d312e3538392d312e363136632d2e3338342d2e3636352d2e3539342d312e3431382d2e3630382d322e313837762d392e3331632d2e3031332d2e3737352e3138352d312e3533382e3537322d322e32303861342e323520342e323520302030203120312e3632352d312e3539356c372e3838342d342e3539632e3636382d2e33383720312e3432362d2e353920322e3139372d2e353973312e3532392e32303420322e3139372e35396c372e38383420342e353961342e353220342e353220302030203120312e35383920312e363136632e3338342e3636352e35393420312e3431382e36303820322e31383776362e3033326c362e38352d342e303635762d362e303332632e3031332d2e3737352d2e3138352d312e3533382d2e3537322d322e32303861342e323520342e32352030203020302d312e3632352d312e3539354c34312e3435362032342e3539632d2e3636382d2e3338372d312e3432362d2e35392d322e3139372d2e3539732d312e3532392e3230342d322e3139372e35396c2d31342e38363420382e36353561342e323520342e32352030203020302d312e36323520312e353935632d2e3338372e36372d2e35383520312e3433342d2e35373220322e3230387631372e343431632d2e3031332e3737352e31383520312e3533382e35373220322e32303861342e323520342e323520302030203020312e36323520312e3539356c31342e38363420382e363535632e3636382e33383720312e3432362e353920322e3139372e353973312e3532392d2e32303420322e3139372d2e35396c31302e3038312d352e39303120362e38352d342e3036352031302e3038312d352e393031632e3636382d2e33383720312e3432362d2e353920322e3139372d2e353973312e3532392e32303420322e3139372e35396c372e38383420342e353961342e353220342e353220302030203120312e35383920312e363136632e3338342e3636352e35393420312e3431382e36303820322e31383776392e333131632e3031332e3737352d2e31383520312e3533382d2e35373220322e32303861342e323520342e32352030203020312d312e36323520312e3539356c2d372e38383420342e373231632d2e3636382e3338372d312e3432362e35392d322e3139372e3539732d312e3532392d2e3230342d322e3139372d2e35396c2d372e3838342d342e353961342e353220342e35322030203020312d312e3538392d312e363136632d2e3338352d2e3636352d2e3539342d312e3431382d2e3630382d322e313837762d362e3033326c2d362e383520342e30363576362e303332632d2e3031332e3737352e31383520312e3533382e35373220322e32303861342e323520342e323520302030203020312e36323520312e3539356c31342e38363420382e363535632e3636382e33383720312e3432362e353920322e3139372e353973312e3532392d2e32303420322e3139372d2e35396c31342e3836342d382e363535632e3635372d2e33393420312e3230342d2e393520312e3538392d312e363136732e3539342d312e3431382e3630392d322e3138375635352e353338632e3031332d2e3737352d2e3138352d312e3533382d2e3537322d322e32303861342e323520342e32352030203020302d312e3632352d312e3539356c2d31342e3939332d382e3738367a222066696c6c3d2223666666222f3e3c646566733e3c6c696e6561724772616469656e742069643d2242222078313d2230222079313d2230222078323d22323730222079323d2232373022206772616469656e74556e6974733d227573657253706163654f6e557365223e3c73746f702073746f702d636f6c6f723d2223636235656565222f3e3c73746f70206f66667365743d2231222073746f702d636f6c6f723d2223306364376534222073746f702d6f7061636974793d222e3939222f3e3c2f6c696e6561724772616469656e743e3c2f646566733e3c7465787420783d2233322e352220793d223233312220666f6e742d73697a653d223237222066696c6c3d2223666666222066696c7465723d2275726c282341292220666f6e742d66616d696c793d22506c7573204a616b617274612053616e732c44656a6156752053616e732c4e6f746f20436f6c6f7220456d6f6a692c4170706c6520436f6c6f7220456d6f6a692c73616e732d73657269662220666f6e742d7765696768743d22626f6c64223e",
  "linkReferences": {},
  "deployedLinkReferences": {}
}